:100000000C9476030C9493030C9493030C94930335
:100010000C9493030C9493030C9493030C94930308
:100020000C9493030C9493030C9487260C945927F7
:100030000C949D200C9493030C9493030C949303C1
:100040000C9493030C9493030C9493030C949303D8
:100050000C9493030C9426210C9493030C94930317
:100060000C9493030C9493030C9493030C949303B8
:100070000C9493030C9493030C9493030C949303A8
:100080000C9493030C9493030C9493030C94930398
:100090000C9493030C9493030C9493030C94930388
:1000A0000C9493030C9493030C949303520B520BF4
:1000B0007E0B7E0BE60B040C1C0D1C0D0F0CA80C0C
:1000C000B90CB90CC127E827E028E827E028342834
:1000D0005728E028AE28BD280A003A20000A722FCF
:1000E0006320303132333435363738394142434476
:1000F00045460A00504346204552523A20436F6C11
:100100002072656164206661696C65640A00436FF2
:100110006C207265616420693263206572726F724F
:1001200000504346204552523A20526F7720736563
:100130006C656374206661696C65640A004572725F
:100140006F72276420493243202D20526F7720732D
:1001500063616E0A0043757272656E742065787013
:10016000616E6465723A2025640A006C65667420CD
:10017000736964652061747461636865640A005022
:100180004346204552523A20526F7720756E736570
:100190006C656374206661696C65640A00466F75FE
:1001A0006E64207465656E7920322E302070696E21
:1001B0006F75740A00466F756E642070726F206DE3
:1001C0006963726F2070696E6F75740A00556E6195
:1001D000626C6520746F20636F6E6E65637420744B
:1001E0006F2065697468657220504346206F7220E5
:1001F0004D43500A00556E6B6E6F776E3A20256442
:10020000200A005374617475732074696D656F758D
:10021000740A00537461747573206572726F720A88
:1002200000537563636573730A00696E69742050C7
:100230004346383537350A00696E69742069326380
:1002400000696E6974206D637032333031380A0092
:10025000696E697420693263001700150008001A7E
:1002600000140029002B000A0009000700160004F2
:10027000002B002A000500190006001B001D00E1EC
:100280000035002C00015130002F00000000004A12
:10029000001C0018000C00120013002D004C000B75
:1002A000000D000E000F0033003400E200110010BA
:1002B000003600370038003100E300280002512EDC
:1002C000022E00000000004D002F0001000100017F
:1002D0000001000100010026024D004E004B004AC3
:1002E0000001000100010001000100010001000106
:1002F00000010001000100460001000000000001B3
:100300000030005F0060006100005C2E02010027E9
:10031000025C005D005E002D003102010001005909
:10032000005A005B002E002D0201000100010001B7
:100330000062000000000001002F00010001000128
:1003400000005C0100010026024F005100520050E5
:100350000001000100010001000100010001000195
:100360000001000100010001000100000000000187
:100370000030000100530049004700A80001002799
:1003800002AC00AE00AB000100A9000100010001B9
:1003900000010001000100AA000100010001002E7F
:1003A00000010000000000010044454255473A208A
:1003B00064697361626C65642E0A00444542554766
:1003C0003A20656E61626C65642E0A0000000000D0
:1003D000000000002A2B28000000000000000000A0
:1003E0000000000000000029000000002C1E342046
:1003F000212224342627252E362D3738271E1F206C
:100400002122232425263333362E37381F040506B0
:100410000708090A0B0C0D0E0F10111213141516F4
:100420001718191A1B1C1D2F3130232D35040506F2
:100430000708090A0B0C0D0E0F10111213141516D4
:100440001718191A1B1C1D2F3130354C00000000E5
:10045000000000000000000000000000000000009C
:10046000000000000000000000000000000000008C
:100470007E0F00D4FFFFFFC7000000780A00253080
:100480003258006C65645F7461736B3A20004F6E84
:100490006573686F743A206163746976653A2025E4
:1004A000640A00290A002575002F002575005D28C3
:1004B0000025640020002564002000256400200041
:1004C0002564007C0025303258006D6F7573656BB4
:1004D0006579205B62746E7C782079207620685D77
:1004E000287265702F61636C293A205B00556E6934
:1004F000636F646520696E707574206D6F6465202C
:1005000073657420746F3A2025750A00556E69630F
:100510006F646520696E707574206D6F6465206905
:100520006E697420746F3A2025750A000A00253020
:10053000325820006B6579626F6172645F7265701A
:100540006F72743A20005B735D005B575D005B5314
:100550005D005B525D005B445D005B435D0020031A
:10056000640061006300740079006C004D005F005E
:100570006E0068007A005F003400780036000000EA
:100580001C034E0065006F00680065007200740077
:100590007A005000610072007400730000000403D0
:1005A000090409025B00030100A0FA09040000012C
:1005B000030101000921110100012240000705810A
:1005C00003080001090401000103000000092111D2
:1005D000010001227B0007058203200001090402BB
:1005E000000203000000092111010001222200077E
:1005F0000583032000010705030320000112010009
:100600000200000008F20CF11F01000102000106C7
:1006100031FF0974A1010975150026FF00952075A9
:100620000881020976150026FF00952075089102C1
:10063000C005010902A10185020901A100050919EE
:100640000129081500250195087501810205010998
:100650003009311581257F95027508810609381505
:1006600081257F950175088106050C0A38021581E0
:10067000257F950175088106C0C005010980A1018B
:10068000850319012AB700150126B70095017510D9
:100690008100C0050C0901A101850419012AA002ED
:1006A000150126A002950175108100C005010906FB
:1006B000A101050719E029E7150025019508750135
:1006C00081029501750881010507190029FF1500B0
:1006D00026FF009506750881000508190129059572
:1006E0000575019102950175039101C011241FBE8A
:1006F000CFEFDAE0DEBFCDBF11E0A0E0B1E0EEE980
:10070000F3E502C005900D92AA38B107D9F722E0AF
:10071000AAE8B1E001C01D92A037B207E1F70E943C
:10072000C9170C94CD290C940000FF93EF93E0912E
:100730008A01F0918B01309709F00995EF91FF91B3
:100740000895FC018591803011F0EFDFFBCF089513
:10075000FF27E0E230E247FF0CC0419597FF09C058
:10076000EDE26095709580959095611D711D811DDC
:10077000911D27FF02C0219530E350E2AA27660FA2
:10078000771F881F991FAA1FA41710F0A41B639539
:100790005A95A9F7AA3008F0A95FA05DAF93F39529
:1007A000611571058105910541F7ED3211F4EF9363
:1007B000F395F21718F43F93F395FBCF8F91B5DFC4
:1007C000FA95E1F70895E991F9918591803021F04A
:1007D000853219F0AADFF9CF089520E0E894559109
:1007E0005532C1F3503311F4689455915A3348F49B
:1007F000505390F3220F022E220F220F200D250FAF
:10080000F4CF0EF4219589919991533619F353370A
:1008100029F1533559F1BC0188279927E8945C36B2
:1008200021F48991999168945591543639F446EFA1
:100830007EF077FF0DC08FEF9FEF0AC055374AE07B
:1008400039F0583540E121F0523642E009F0089580
:10085000FF93EF937DDFEF91FF91B7CFFF93EF937E
:10086000FC0181918030B9F360DFFBCFFF93EF9300
:1008700068DFF1CFDF93CF93CDB7DEB72596A3DF47
:10088000CF91DF91089584B1807884B985B18F6765
:1008900085B98BB183608BB90895A2E0B0E0E3E540
:1008A000F4E00C94572980918E01811117C08FEFCD
:1008B00089838A8324E630E042E050E0BE016F5F26
:1008C0007F4F88E40E940A1F9093010180930001EA
:1008D000892B21F08FE791E00E94A10380B38C78EF
:1008E00080BB81B38C7881BB2296E2E00C947329A3
:1008F000A2E0B0E0EEE7F4E00C945629843008F46E
:1009000059C02091000130910101232B09F063C0EF
:10091000845021E030E0A90102C0440F551F8A95A0
:10092000E2F7142F109580918E01813049F564E62D
:1009300070E080E40E941B1E9093010180930001EF
:10094000892BC9F464E670E082E10E94901E9093C6
:10095000010180930001892B71F464E670E0812F1E
:100960000E94901E9093010180930001892B19F43D
:100970000E94631F30C00E94631F8DE391E017C087
:10098000811129C019838FEF8A8324E630E042E089
:1009900050E0BE016F5F7F4F88E40E940A1F909372
:1009A000010180930001892BB1F081E291E00E9466
:1009B000A10311C0823051F0833059F0813019F019
:1009C000809A889808C0819A899805C0849A8C98E2
:1009D00002C0859A8D982296E3E00C947229A2E0D9
:1009E000B0E0E5EFF4E00C945629843008F45BC0E5
:1009F0008091000190910101892B09F058C08091EC
:100A00008E018130B9F564E670E080E40E941B1E1F
:100A10009093010180930001892B29F564E670E031
:100A200083E10E94901E9093010180930001892B25
:100A3000D1F464E670E081E40E941B1E90930101F2
:100A400080930001892B79F484E690E00E94E51EF2
:100A50008095182F1F7710920101109200010E94BB
:100A6000631F812F25C08EE091E00E94A1030E94A8
:100A7000631F1DC081111BC024E630E042E050E03E
:100A8000BE016F5F7F4F89E40E942B1F909301018D
:100A900080930001892B21F084EF90E00E94A10354
:100AA0008A81809505C083B180958F7701C080E0F1
:100AB0002296E3E00C94722908950E945C05089543
:100AC0000E945D0508950E945C0508950E945306EA
:100AD00090E0909301018093000121E020938E012A
:100AE000892B49F00E949B0790E09093010180932D
:100AF000000110928E018091000190910101892BDB
:100B000021F08DEC91E00E94A10355985D98239807
:100B10002B984D9B05C01B9B03C085EB91E002C049
:100B20008DE991E00E94A1030E944D040E944304BC
:100B3000EFE8F1E0A7E9B1E011921D9281E0E73919
:100B4000F807D1F788E00E9485170E94C40808952D
:100B50000E94530690E090930101809300010E944F
:100B60004D040E944304EFE8F1E0119281E0E7397F
:100B7000F807D9F70895EF92FF920F931F93CF9341
:100B8000DF938091000190910101892BC1F1809147
:100B90008C0190918D01019690938D0180938C0131
:100BA000892B69F50E94530690E090930101809390
:100BB000000121E020938E01892B49F00E949B07C0
:100BC00090E0909301018093000110928E0180913A
:100BD000000190910101892B91F48BE691E00E9434
:100BE000A10380918E011F928F9385E591E09F93E1
:100BF0008F930E943A040F900F900F900F9007E987
:100C000011E0C0E0F12C84E0E82EEC0E8C2F0E9465
:100C100078048E2D0E9478048C2F0E94EF04F80136
:100C20009081891719F08083D1E001C0D0E08E2D2A
:100C30000E94EF04F8019481891719F0848381E000
:100C400001C080E0D82BFD2A0E944D04CF5F0F5FCA
:100C50001F4FC430C1F62F2D48E06FE871E087E9DF
:100C600091E00E9486170E94C70881E0CDB7DEB7E9
:100C7000E6E00C946F29E82FF0E0E157FE4F808109
:100C80000895CF938DED90E00E94A103C8E08AED16
:100C900090E00E94A10388ED90E00E94A103C15062
:100CA000B1F7CF910895CF93DF9380E290E09093D6
:100CB00001018093000180919F01811112C080E5A4
:100CC00092E00E94A1030E94151E81E080939F0183
:100CD0002FEF83ED90E3215080409040E1F700C07A
:100CE000000081E492E00E94A10364E670E080E4E9
:100CF0000E941B1E9093010180930001892B09F033
:100D000013C164E670E085E00E94901E909301019B
:100D100080930001892B09F007C164E670E080E050
:100D20000E94901E9093010180930001892B09F08D
:100D3000FBC00E94631F8FE39CE90197F1F700C09D
:100D4000000064E670E080E40E941B1E90930101A5
:100D500080930001892B09F0E7C064E670E080E031
:100D60000E94901E9093010180930001892B09F04D
:100D7000DBC064E670E080E00E94901E9093010169
:100D800080930001892B09F0CFC064E670E08FEFFB
:100D90000E94901E9093010180930001892B09F01D
:100DA000C3C00E94631F8FE39CE90197F1F700C065
:100DB000000064E670E080E40E941B1E9093010135
:100DC00080930001892B09F0AFC064E670E08CE0ED
:100DD0000E94901E9093010180930001892B09F0DD
:100DE000A3C064E670E080E00E94901E9093010131
:100DF00080930001892B09F097C064E670E08FEFC3
:100E00000E94901E9093010180930001892B09F0AC
:100E10008BC00E94631F8FE39CE90197F1F700C02C
:100E2000000064E670E080E40E941B1E90930101C4
:100E300080930001892B09F077C064E670E084E1BB
:100E40000E94901E9093010180930001892B09F06C
:100E50006BC064E670E08FEF0E94901E90930101DA
:100E600080930001892B09F05FC064E670E080E0A8
:100E70000E94901E9093010180930001892B09F03C
:100E800053C00E94631F8FE39CE90197F1F700C0F4
:100E9000000064E670E080E40E941B1E9093010154
:100EA0008093000164E670E083E10E94901E9093BD
:100EB000010180930001892BB9F564E670E081E4BB
:100EC0000E941B1E84E690E00E94E51E90930101A3
:100ED00080930001EC01C095D0950E94631F64E6E9
:100EE00070E080E40E941B1E90930101809300013A
:100EF00064E670E085E00E94901E9093010180936B
:100F00000001892B89F464E670E081E40E941B1ED5
:100F100084E690E00E94E51E8C2B9D2B90930101AE
:100F2000809300010E94631F0E94631F8091000153
:100F3000DF91CF910895A2E0B0E0E1EAF7E00C94F0
:100F4000572980919F01811112C088E392E00E948D
:100F5000A1030E94151E81E080939F012FEF81EE77
:100F600094E0215080409040E1F700C000008FEFF6
:100F700089838A8324E630E042E050E0BE016F5F5F
:100F80007F4F88E40E940A1F909301018093000123
:100F90008AE292E00E94A1038091000190910101F8
:100FA000009719F481E292E006C08F3F2FEF92077D
:100FB00029F483E192E00E94A10313C08E3F2FEF3A
:100FC000920719F483E092E0F6CF9F938F9385EF19
:100FD00091E09F938F930E943A040F900F900F908F
:100FE0000F900E94631F809100012296E2E00C9412
:100FF00073299C013A9521153F4130F5BC016627C4
:101000007270AC01442754709C012227387094FF01
:101010000FC090FF02C080E101C080E0672B09F0A3
:101020008062452B09F08064232B79F08068089555
:10103000892F8170672B09F08260452B09F084604D
:10104000232B19F08860089580E00895CF93DF93F3
:10105000EB010E94F907FE010995DF91CF910895F8
:10106000CF93DF93EC01805E9109089710F02097F1
:1010700019F46BE07BE002C065E87DE0CE010E94E0
:1010800026088C2F0E945D0ADF91CF910895CF939F
:10109000DF93EC010E94B20ACE01805E91090897AD
:1010A00010F0209719F462E17BE002C06CE87DE06B
:1010B000CE010E942608DF91CF910895CF93DF9350
:1010C000EC010E943008C933D10549F42FEF87EEB7
:1010D00093E0215080409040E1F700C00000CE0135
:1010E0000E944708DF91CF91089581E0089581E043
:1010F00008950E947708089508950E947C08089535
:10110000A5E0B0E0E6E8F8E00C94562949835A835C
:101110003091A10189819A81311114C0662359F05F
:10112000222349F00E94840F182F682F89819A8109
:101130000E94600F03C00E94720F182F69817A818C
:10114000812F04C00E94840F69817A810E946A16EF
:101150002596E3E00C947229FC01262F40815181F1
:101160006281738184810E948008089581E00895DE
:10117000CF93DF93EC0160E00E94AC08BE010E94B7
:101180007D08DF91CF9108950E94600508950E9427
:101190006305089508950E94AD0D0E94CA082FEFBF
:1011A00084E39CE0215080409040E1F700C00000C3
:1011B00008950E94CB080E944C2108950E94CB08FC
:1011C0000E947E2108950F931F93CF93DF938C018C
:1011D00061E00E94AC08EC01B8010E947908882304
:1011E00079F1B801CE010E94C41B882349F1B801EE
:1011F000CE010E94C31D882319F1B801CE010E94BF
:10120000E11B8823E9F0B801CE010E94291D882343
:10121000B9F0F8018281882309F43FC0CB358DE510
:10122000D807B1F178F4C130FCE5DF07A1F0CF3D7C
:101230008CE5D80729F1C115DC4579F50E94D9085C
:10124000C0E02FC0CD35FDE5DF07F9F020F1C83A49
:10125000DD45C1F022C080912902C82FC095C17020
:10126000C0FB80F980932902CC2329F08BEB93E01B
:101270000E94A103E5CF89EA93E00E94A10311C077
:101280000E9496140E94DE08DBCF0E94D41305C092
:101290000E94DE1302C00E94E213C8010E9475087A
:1012A000C82F8C2FDF91CF911F910F9108950E942D
:1012B00079200E94DC0908950E94E0090E947F20A5
:1012C0000895A0E0B0E0E7E6F9E00C945229E82F99
:1012D000F0E0E453FC4FD490282F269526952695D0
:1012E00030E0F901E459FB4F0491877010E0082EBB
:1012F00002C0159507950A94E2F701701127F901CC
:10130000E45AFB4FE490F12C082E02C0F594E794C8
:101310000A94E2F791E0E922FF24F901E45BFB4F34
:10132000C491D0E002C0D595C7958A95E2F7C17007
:10133000DD270115110519F081EE0E945D0AE11407
:10134000F10419F086EE0E945D0A8D2D0E94010BBA
:10135000E114F10419F086EE0E94B20A011511059C
:1013600019F081EE0E94B20ACD2B19F08CE20E9496
:10137000010BCDB7DEB7E7E00C946E29982F9F7074
:101380009A50963010F0805D01C0895A0E94610920
:10139000089508950E94C909089581E008950E9462
:1013A000CD0908950895CF93C82F0E94CA098C2FA4
:1013B0000E94CF09CF91089580E00E94D30908953B
:1013C0000E94711F0E94D3090895CF930E94711F3C
:1013D000C82F8091A001C81739F1C093A001809156
:1013E000290282FF1EC080FF04C083E894E00E94AF
:1013F000A1038091290280FF0CC01F92CF938EE73A
:1014000094E09F938F930E943A040F900F900F9057
:101410000F908091290280FF04C08CE794E00E9425
:10142000A1038C2F0E94D309CF910895ABE0B0E0C7
:10143000ECE1FAE00C9457294F83588769877A8743
:101440008B8761110E9408139E012F5F3F4F86E03A
:10145000F90111928A95E9F785E0FE013796D901E5
:1014600001900D928A95E1F789819A814C815D8185
:10147000452B31F09F3F31F491E08F3F19F403C0C9
:1014800091E001C090E090FF09C049815A816B81D1
:101490007C818D819E810E94311205C0C9010E940C
:1014A000B6088111F2CF2B96E2E00C947329FC016F
:1014B000808191810E94BE0F0895CF93882309F403
:1014C0004FC0C82F8CEF8C0F813AD0F46C2F8091D5
:1014D0000201909103010E940820882349F06C2F9B
:1014E00080910201909103010E9441200E942C13DF
:1014F0006C2F80910201909103010E943E200CC04C
:1015000080E28C0F883058F4C77081E001C0880FEA
:10151000CA95EAF70E94E8120E942C1321C0EBE55D
:10152000EC0FE33040F4F0E0E95BFE4F808190E0A7
:101530000E94D01F15C0E8E5EC0FE73150F4F0E051
:10154000EE0FFF1FE75EFE4F808191810E94E61F34
:1015500007C0CD3E28F08C2F0E944E180E94201903
:10156000CF9108958823A1F19CEF980F913A40F410
:10157000682F80910201909103010E9441200DC0CB
:1015800090E2980F983060F4877091E001C0990F55
:101590008A95EAF7892F0E94EE120E942C13089573
:1015A0009BE5980F933028F480E090E00E94D01FD4
:1015B000089598E5980F973128F480E090E00E9414
:1015C000E61F08958D3E20F00E94A9180E94201960
:1015D00008951F93CF93DF93182FEB010E945D0AAC
:1015E000209741F08FE99FE00197F1F700C00000DC
:1015F0002197F6CF812F0E94B20ADF91CF911F91E0
:101600000895893319F060E070E002C060E570E091
:101610000E94E90A0895882321F00E94E8120E949E
:101620002C130895882321F00E94EE120E942C139F
:101630000895A0E0B0E0EFE1FBE00C9451297C01BB
:10164000D62FC72FFC011281058102950F700E94D1
:10165000DE128823B9F01123A9F08C2F807F80340B
:1016600021F080E28D0F883068F08091570282FF70
:1016700009C082E00E948E130E94DE1291E0D82EF3
:10168000D92601C0D12CCC2EC2948FE0C8228C2D3B
:1016900090E08C30910508F0CFC1FC01EA5AFF4F71
:1016A0000C9441298C2F807FCF70882311F0C29534
:1016B000C07F112399F0CC2309F4AAC180E28D0FD9
:1016C000883010F0D11104C08C2F0E94E81203C0A2
:1016D0008C2F0E94FB120E942C139AC18D2F0E9406
:1016E000B20ACC2309F4A8C180E28D0F883038F10A
:1016F000DD2329F18C2F0E94011324C08C2F807FC1
:10170000CF70803211F0C295C07FDD2319F0D13047
:10171000A1F13DC08091570282FD17C0112349F00D
:10172000CC2329F08C2F0E94E8120E942C1380E019
:1017300070C180E00E94B20ACC2309F47DC18C2FD5
:101740000E94EE120E942C1377C1112371F0002326
:1017500041F0013031F40E940B138C2B0E941513C1
:101760006BC10E940B138C2B1DC0002319F001309C
:1017700009F462C10E94221325C0112321F0063012
:1017800008F05AC10EC0053008F056C11BC0112325
:1017900061F0002331F0F701858180FF39C18F703E
:1017A00085838C2F0E940B0B47C1002359F0D9333E
:1017B00009F03FC1FFEF07EE13E0F1500040104089
:1017C000E1F735C18C2F0E94120B36C18C2F869504
:1017D0008695837019F0813061F02EC1112321F0BC
:1017E0008D2F9C2F937002C080E090E00E94D01F4C
:1017F0002BC1112321F08D2F9C2F937002C080E00C
:1018000090E00E94E61F20C18D2F112319F00E9445
:101810004E1802C00E94A9180E94201915C18C2FD1
:10182000837009F047C011110BC12D2F2295269509
:101830002770220F220F6D2F6F70862F90E0A0E08F
:10184000B0E0022E04C0880F991FAA1FBB1F0A9484
:10185000D2F7D4FF10C04FE050E060E070E004C069
:10186000440F551F661F771F2A95D2F74095509554
:101870006095709503C040E050E0BA01C695C695EA
:10188000C3708A019B01082B192B2A2B3B2BC90102
:10189000B801C23049F058F4C13019F00E94140E5A
:1018A000CFC00E94010ECCC00E94270EC9C00E946A
:1018B000FE0DC6C0112319F08C2F817001C08695D2
:1018C000882309F4BDC02D2F229526952770220F5D
:1018D000220F6D2F6F70862F90E0A0E0B0E0022EF7
:1018E00004C0880F991FAA1FBB1F0A94D2F7D4FF08
:1018F00010C04FE050E060E070E004C0440F551F9E
:10190000661F771F2A95D2F7409550956095709580
:1019100003C040E050E0BA01C695C695C3708A0185
:101920009B01082B192B2A2B3B2BC901B801C23074
:1019300049F058F4C13019F00E94E30E81C00E94B2
:10194000D00E7EC00E94F60E7BC00E943D0E78C075
:10195000CF70112339F08C2F0E94660E8D2F0E94BC
:101960000B0B6EC08D2F0E94120B8C2F0E94880EC5
:1019700067C0D23F21F128F4D03F41F0D13FC1F000
:1019800043C0D33F19F1D43F79F03EC0112341F059
:10199000053008F051C08C2F8F710E94AE0E4CC0E4
:1019A000063008F049C0F7CF8091570282FD18C079
:1019B000112339F08C2F8F710E94660E3DC01123C8
:1019C000C9F38C2F8F710E94880E36C0112329F025
:1019D0008C2F8F710E94500E2FC00E944A0E2CC077
:1019E000112349F0CF718C2F0E94660E63E08C2F7B
:1019F0000E94701321C081E00E948E130230E0F03B
:101A000082E00E948E1318C0112331F0002391F25E
:101A10008D2F0E945D0A10C0002399F2D93349F43A
:101A20001FEF27EE33E0115020403040E1F700C0B7
:101A300000008D2F0E94B20A88EF8C0D843020F4B4
:101A40000E94711F0E94D309DD2089F00E94DA12E2
:101A500080FD0DC0F70112820E94D4120E94660E12
:101A6000C7010E94540D0E94D4120E94880ECDB767
:101A7000DEB7E8E00C946D290F931F93CF93DF93AB
:101A8000EC01688179818A810E94C90F8C010E94D2
:101A9000090F0E94E90DB801CE010E94190BDF91D8
:101AA000CF911F910F910895CF93DF93EC0198810F
:101AB00089812B813C81232B31F08F3F31F481E0F0
:101AC0009F3F19F403C081E001C080E080FD1AC08F
:101AD000CE010E94E30881110FC00E94DE1288230C
:101AE00089F08A81882371F08091570282FF0AC0B1
:101AF00082E00E948E1306C0CE010E943C0DCE01F2
:101B00000E94B808DF91CF910895882321F00E94A8
:101B1000FB120E942C130895882321F00E940113C8
:101B20000E942C13089580E090E00E94D01F80E076
:101B300090E00E94E61F0E9408130E942C130E944E
:101B4000BB1A0E942019089580910201909103010F
:101B50000E9444200E94930D08950E94F8120E9452
:101B6000A40D089592959F70963079F010F49250DC
:101B700001C09A50923068F4803F69F018F4883EB2
:101B800040F409C0843F29F406C0883E20F0813F1C
:101B900011F080E0089581E00895FC018081918139
:101BA0000E94BE0F0E94B20D0895A5E0B0E0EBEDDB
:101BB000FDE00C9457292596E2E00C947329A6E0E9
:101BC000B0E0E5EEFDE00C9457292696E2E00C9497
:101BD0007329089508950E94EA0D08950E94EB0D5F
:101BE00008950E94EE0D6093C9017093CA0180931D
:101BF000CB019093CC010E94930D08950E94F10DAA
:101C000008950F931F930091C9011091CA0120916B
:101C1000CB013091CC01602B712B822B932B0E9436
:101C2000F10D1F910F9108950F931F930091C9011A
:101C30001091CA012091CB013091CC016023712316
:101C4000822393230E94F10D1F910F9108950F930A
:101C50001F930091C9011091CA012091CB013091CD
:101C6000CC0160277127822793270E94F10D1F91D5
:101C70000F9108950E94EA0D08950E943A0E609314
:101C8000C5017093C6018093C7019093C8010E945B
:101C9000930D089560E070E0CB010E943D0E089521
:101CA0000F931F9341E050E060E070E08A019B01D8
:101CB00004C0000F111F221F331F8A95D2F7C901DC
:101CC000B8010E943D0E1F910F9108950F931F932D
:101CD00041E050E060E070E004C0440F551F661F13
:101CE000771F8A95D2F78091C5019091C601A09186
:101CF000C701B091C8018A019B01082B192B2A2B1F
:101D00003B2BC901B8010E943D0E1F910F91089510
:101D10000F931F9341E050E060E070E004C0440F77
:101D2000551F661F771F8A95D2F74095509560958D
:101D300070958091C5019091C601A091C701B091A5
:101D4000C8018A019B01082319232A233B23C901C7
:101D5000B8010E943D0E1F910F9108950F931F939C
:101D600041E050E060E070E004C0440F551F661F82
:101D7000771F8A95D2F78091C5019091C601A091F5
:101D8000C701B091C8018A019B01082719272A279A
:101D90003B27C901B8010E943D0E1F910F91089584
:101DA0000F931F930091C5011091C6012091C701A7
:101DB0003091C801602B712B822B932B0E943D0E1A
:101DC0001F910F9108950F931F930091C5011091DA
:101DD000C6012091C7013091C8016023712382237D
:101DE00093230E943D0E1F910F9108950F931F930F
:101DF0000091C5011091C6012091C7013091C80121
:101E000060277127822793270E943D0E1F910F9113
:101E100008950895962F9770A1E001C0AA0F9A9592
:101E2000EAF793E0769567959A95E1F795E0969FA6
:101E30009001979F300D1124FA01E20FF31F40E04B
:101E400050E0682F70E090819B01042E02C036950F
:101E500027950A94E2F72170219529272A2329271B
:101E600021934F5F5F4F4530510569F70895FB019E
:101E7000782F777023E0969587952A95E1F745E0CE
:101E8000489F9001499F300D1124E20FF31F40E05D
:101E900050E080E0219130E0072E02C03695279572
:101EA0000A94E2F721703327042E01C0220F0A940E
:101EB000EAF7822B4F5F5F4F4530510559F7089580
:101EC000282F983070F4873060F4862F622F70E0EE
:101ED00027E0929F600D711D112442EA51E00E949B
:101EE0000A0F0895983070F4873060F4292F90E03D
:101EF00062EA71E037E0239F800D911D11240E945A
:101F0000370F089580E00895A0E0B0E0EAE8FFE030
:101F10000C9450298C01C090C501D090C601E0906E
:101F2000C701F090C8018091C9019091CA01A091A8
:101F3000CB01B091CC01C82AD92AEA2AFB2ACFE1E9
:101F4000D0E0D701C6010C2E04C0B695A795979591
:101F500087950A94D2F780FD04C0219790F7B12CA1
:101F600007C0BC2EB8018C2F0E9483160197A9F3DD
:101F70008B2DCDB7DEB7E9E00C946C29CF93DF93BE
:101F8000EC010E94840FBE010E948316DF91CF9165
:101F900008951F93CF93DF93EB019091A1019923B3
:101FA00021F0CB010E94BE0F13C0882349F0CB0162
:101FB0000E94840F182F682FCE010E94600F04C06A
:101FC000CB010E94720F182FBE01812F0E94831631
:101FD000DF91CF911F9108951F93CF93DF93C0910D
:101FE000CD0116E08091CE01C81799F0D0E01C9F7A
:101FF000F0011D9FF00D1124E153FE4F40815181EE
:1020000062817381848195810E94DF0D2196C77062
:10201000E9CFDF91CF911F9108954091FF01509139
:10202000000260910102709102028091030290917E
:1020300004020E94DF0D08950F931F93CF93DF9347
:102040008091040282958F7009F05AC0809101023C
:10205000882309F455C08091CD011091CE01609183
:10206000FF0170910002C0910202D091030291E041
:102070006F3F09F090E0292F06E0811709F440C076
:10208000209721F07F3F21F030E003C031E001C014
:10209000322F90E030FD31C0089FF001099FF00D14
:1020A0001124DF01A153BE4F11963C9111973713B4
:1020B00024C03C91361321C012963C9112973111E5
:1020C0001CC013964D915C9114974C1B5D0B483CC2
:1020D000510598F4809104028F708061809304020E
:1020E000EC52FE4F80818F70806180838FEF91E092
:1020F0000E94540D0E94EC0F03C001968770BDCF63
:10210000DF91CF911F910F910895A1E1B0E0EBE82D
:10211000F0E10C944E298C0185E0F801DE011D965A
:1021200001900D928A95E1F7F801E2809091FF010C
:1021300060910002209102023091030221153105C5
:1021400031F06F3F31F481E09F3F19F403C081E02B
:1021500001C080E0F82FF1709F2E80FD40C1F80192
:1021600040815181A380B4808FEFC82E81E0D82EAA
:10217000F0900102F501E21BF30BFF2009F4DAC035
:1021800080910402E83CF10508F096C0282F207FDA
:1021900009F053C0561313C0491311C0FE2CE110AF
:1021A0000EC08F708061809304020E940D10C601E2
:1021B0000E94540D80910402F80185834DC1A11441
:1021C000B10431F05F3F31F481E04F3F19F403C0B7
:1021D00081E001C080E080FD03C081E08E2502C067
:1021E00080E090E0F82FF170FF2E80FF1CC08091FE
:1021F000CD012091CE0136E0821709F40BC190E0A9
:10220000389FF001399FF00D1124E153FE4F618199
:10221000561306C06081461303C06281E61203C0F4
:1022200001968770E9CFFE2CEE2009F415C180914C
:10223000040281608093040254C0561306C04913FF
:1022400004C0E11002C0F80199C0C8010E94CD0D80
:10225000882361F1EE2051F120910402822F8295B2
:102260008F7090E0029774F08091FF0190910002CE
:1022700098878F831986BB86AA862C87CE010796FE
:102280000E94540D86E0F801AFEFB1E001900D928D
:102290008A95E1F70E941C100E940D100AC0561783
:1022A00011F1C8010E94CD0D81112CC0C8010E94FE
:1022B000540DFF24F394D0C0282F207F81F77A2D6E
:1022C000B98AA88A6E2D89890E94D50D8FEF91E079
:1022D0000E94540D86E0F60111928A95E9F70E945A
:1022E0000D10F12CB9C04913DCCFE110DACFF801A1
:1022F0008583C8010E94540D86E0F60111928A95EB
:10230000E9F7AAC0EE2091F220910402822F829573
:102310008F7090E002970CF4B5CF8091FF019091FF
:1023200000029A8389831B82BD82AC822E83CE01F8
:102330000196A6CFE83CF10508F044C0FE2CEE2043
:1023400009F4B4CF561330C049132EC020910402B3
:1023500020FD21C0822F82958F70482F50E04115BB
:102360005105C9F0F80125834F30510541F08F5FC9
:10237000982F9295907F822F8F70892B8583C8012B
:102380000E94540D86E0F801AFEFB1E001900D928C
:102390008A95E1F73CC086E0F801AFEFB1E001902B
:1023A0000D928A95E1F758C0C8010E94CD0D8111A8
:1023B00069CF80910402816080930402C8010E9469
:1023C000540D4AC07A2DB98AA88A6E2D89890E9437
:1023D000D50D86E0F60111928A95E9F718C0EE2036
:1023E00009F464CFC8010E94CD0DF82E882309F4AA
:1023F0005DCF86E0F801AFEFB1E001900D928A95D4
:10240000E1F78FEF91E00E94570A0E941C100E9492
:102410000D1022C04D875E878D859E850E94BE0F60
:10242000292F22952F70223028F49F7039F08111C6
:1024300005C00BC0243028F49F7049F4805E8830BA
:1024400020F0C8010E94540D9F2CF92C05C0F80102
:102450009581907F99F7F9CF8F2D6196EBE00C94E1
:102460006A29ACE0B0E0E7E3F2E10C9456294F832F
:10247000588769877A878B879C87CE0107960E9449
:1024800085108823D1F09F8188852A853B85232B61
:1024900031F08F3F31F481E09F3F19F403C081E0B8
:1024A00001C080E080FD47C04F81588569857A85ED
:1024B0008B859C850E94DF0D3EC086E0FE0137962D
:1024C000DE01119601900D928A95E1F7FF81E88572
:1024D0006A857B856115710531F0EF3F31F481E04C
:1024E000FF3F19F403C081E001C080E080FD23C0FC
:1024F0002091CE0130E0C901019687709927409163
:10250000CD0150E084179507F1F1F983EA837D83CB
:102510006C8396E0929FD001939FB00D1124A1533C
:10252000BE4FFE01319601900D929A95E1F780938E
:10253000CE010E94EC0F16E08091CD019091CE016A
:10254000891771F1189FC001112481539E4F0E9479
:102550008510882329F1E091CD011E9FF0011124FF
:10256000E153FE4F40815181628173818481958165
:102570000E94DF0D8091CD0190E001968770992730
:102580008093CD01D9CF0E94AD0D1092CE01109253
:10259000CD01EFEFF1E086E0DF011D928A95E9F7CA
:1025A0002C96E3E00C94722980910D028595859517
:1025B0008595089580910D028770089590910D0280
:1025C000977081E009F480E00895809118020895E1
:1025D00090911802892B809318020895809590910C
:1025E0001802892380931802089580931802089591
:1025F00010921802089590911702892B8093170268
:102600000895809590911702892380931702089569
:1026100010921702089580910E02089508950E9465
:102620000E1308950E940F1308959091570292FF80
:1026300008C090910E02981721F080930E020E941C
:102640001213089580910E02882329F010920E0231
:1026500080E00E9412130895CF93DF93E09102016E
:10266000F0910301809118028083E0910201F091C2
:102670000301908180911702892B808380910E0243
:10268000882381F0E0910201F09103019081892B70
:10269000808380910201909103010E94FC1F8111AF
:1026A0000E942213C0910201D091030148E050E042
:1026B00065E072E0CE010E947E29892B59F088E006
:1026C000FE01A5E0B2E001900D928A95E1F7CE01FE
:1026D0000E94811FDF91CF9108950E940E130895EB
:1026E0009091570292FF11C098E0899F90011124A8
:1026F000262B20930D020E94660E80910D02859577
:10270000859585950E946D1308950E94660E089523
:1027100010920D0280E00E946D13089520910D0229
:102720008095822380930D02982F977099F430E062
:10273000482F082E000C550B2417350759F090919F
:10274000570292FF07C08595859585950E94880E52
:102750000E9488130895CF939091570292FB2227ED
:1027600020F92817F9F0C82F892FC0FB82F9809330
:10277000570280915602909157020E940C1482E0F9
:102780000E948E138091290280FF0CC01F92CF936C
:102790008EE894E09F938F930E943A040F900F90DD
:1027A0000F900F90CF9108958091570282FB882758
:1027B00080F991E089270E94AB13089581E00E947F
:1027C000AB13089580E00E94AB13089580E090E081
:1027D0000E94932921E0883E9E4F09F020E0822F3D
:1027E000089582E090E00E948B29089583E090E0B4
:1027F0000E948B290895CF9384E090E00E948B295A
:10280000C82F82E290E00E948B292C2F30E0A90192
:10281000582BCA01CF910895CF93C92F682F84E018
:1028200090E00E9499296C2F82E290E00E94992901
:10283000CF910895AB01BC018FE090E00E94AB29DD
:102840000895AB01BC0183E190E00E94AB2908959B
:1028500060E070E0CB010E942114089560E070E018
:10286000CB010E941A140E942814089568EE7EEF8E
:1028700080E090E00E94B72960E082E090E00E9452
:10288000992960E083E090E00E9499291092C901A3
:102890001092CA011092CB011092CC0160E084E04A
:1028A00090E00E94992964E082E290E00E949929D8
:1028B00060E085E090E00E94992960E086E090E089
:1028C0000E9499296FEF87E090E00E94992940E0EB
:1028D00050E0BA0188E090E00E94AB2960E08DE012
:1028E00090E00E94992940E050E0BA0188E190E030
:1028F0000E94AB2960E087E190E00E94992940E0C6
:1029000050E0BA018CE190E00E94AB2960E070E0F9
:1029100080E290E00E94B72940E050E0BA0188E1EF
:1029200090E00E94AB290E942E1408950E94361454
:102930000895682F8EE090E00E94992908950E94E2
:102940000B216093250270932602809327029093B7
:1029500028026093210270932202809323029093B5
:102960002402089581E008950E94B2140895089504
:102970000E94B71408950E94B71408950E94BB14D2
:1029800008950E94B71408950E94C11408950E94EA
:10299000B714089583E693E20E94671F0E94C7144C
:1029A0000E94C41408950E94B8140E94B714089598
:1029B0000E9460170E94D2090E94F31A08950E9493
:1029C000F6200E9466050E94D8140E94BE14089545
:1029D000AAE0B0E0EEEEF4E10C944D290E94BB05B4
:1029E000982E81110E949F1489E1A82E82E0B82EB2
:1029F00000E010E0802E802F0E943B06D82EF501CB
:102A0000C1905F01C826B1F40F5F1F4F0830110558
:102A100089F78FEF89838A831B820E94FF20816060
:102A2000782F9D838C8349815A816B818D810E948F
:102A3000160A2FC08091290281FD0E944106E12CD7
:102A4000FF24F3948C2D8F21F1F00E94B41488237D
:102A500099F0EE828F82DF2081E009F480E08887A0
:102A60000E94FF208160782F9A8789874E815F813D
:102A700068858A850E94160AF801E75EFD4F80810D
:102A8000F826F08206C0E394FF0CF7E0EF12DACFED
:102A9000BBCF81E0911001C080E02A96ECE00C945D
:102AA00069290E94E8140E94C1190E94E50908954D
:102AB000CF93DF930E948816EC01811521E59207E0
:102AC00008F045C0811530E5930708F094C0883EB2
:102AD000910528F5803E910508F0F8C0883A9105E7
:102AE00070F4853A910508F07CC08130910509F4B5
:102AF00075C008F4E8C0049708F0E8C0E4C08F3B54
:102B0000910508F0E0C0C85AD0E0CC0FDD1FC65BCD
:102B1000DE4F0990D881C02DCE019464D8C08115B4
:102B200040E2940758F4811551E0950708F0CEC0B3
:102B30008D3E910508F4C7C09065C9C0C11580E4F9
:102B4000D80708F4C0C0DF70CE01906AC0C08115FC
:102B500025E59207A8F4811534E5930708F095C0A0
:102B6000811543E5940708F07BC0811552E5950770
:102B700008F061C0D82FCC27CE01816F906AA7C022
:102B8000C11589E5D807A0F4C11528E5D20708F0DA
:102B900082C0C11536E5D30708F095C08C2F0E947E
:102BA0001C178F7190E0D82FCC27CE0190628FC078
:102BB000C1154AE5D40708F474C0CE0190568115BA
:102BC000904208F080C08D2F8F710E941C17DD2766
:102BD000D0628F71AE01582BCA0179C081E090E0BC
:102BE00076C0C55AD0E0C858DE4F8881C82FD0E0E3
:102BF000CE0190646CC074E0969587957A95E1F764
:102C0000282F23703C2F337081E090E002C0880FA2
:102C1000991F3A95E2F79C68AC01522B9A019C2FC0
:102C20009F709695969550E2959FE0011124C901F9
:102C30008C2B9D2B4CC08370992721E030E002C083
:102C4000220F331F8A95E2F79C2F9695969580E286
:102C5000989FE0011124C22BD32BCE019C6837C072
:102C60008370992721E030E002C0220F331F8A953C
:102C7000E2F79C2F9695969540E2949FE0011124EF
:102C8000C22BD32BCE019A6822C0D82FCC27CE01DD
:102C9000846F906A1CC0DC2FCC27CE01806F906AB5
:102CA00016C08C2F8F700E941C1794E0D695C79584
:102CB0009A95E1F7CF70D0E0DC2FCC27D0699E0148
:102CC000282BC90104C080E090E001C0CE01DF9153
:102CD000CF9108957830A0F4673090F498E3899FFD
:102CE000F001112487E0789FE00DF11D1124E60F1B
:102CF000F11DEE0FFF1FE75AFD4F85919491089546
:102D000080E090E008950E946A160E945815089588
:102D10008238910569F1B0F48133910509F46DC0F1
:102D200048F48932910509F463C08A32910509F4A7
:102D300069C008958533910509F455C0893391051B
:102D4000B9F00895833E910569F138F4803E91050C
:102D5000B1F0823E910509F10895863E9105A9F1F1
:102D6000873E9105B9F1843E910509F064C023C006
:102D70002091560220FD4FC021FD4DC00895809145
:102D8000560280FD44C08091570280FF44C080916C
:102D9000560284FD42C083EE4DC08091560282FFF0
:102DA00038C0F5CF8091560282FD33C08091570222
:102DB00080FD31C0ECCF8091570281FF32C08091FD
:102DC000560284FD2AC087EE35C08091560283FFEB
:102DD00026C0F5CF8091560283FD21C08091570215
:102DE00081FD1FC0ECCF8091560285FD1CC01DC027
:102DF0008091560285FD19C016C08091560286FD4D
:102E000016C017C08091560286FD13C010C089E31A
:102E100011C082EE0FC080EE0DC080E00BC086EEC8
:102E200009C084EE07C089E205C085E303C08AE2D9
:102E300001C081E390E008959091560292FF0DC089
:102E4000282F2871283019F4877F846006C0282F26
:102E50002471243011F48B7F886093FF0DC0282FDC
:102E60002871283119F4877E846106C0282F2471C7
:102E7000243111F48B7E88612091570220FF0DC010
:102E8000382F3871383019F4877F816006C0382FA9
:102E90003171313011F48E7F886021FF0DC0282FF1
:102EA0002871283119F4877E816106C0282F21718D
:102EB000213111F48E7E886194FD877E08950895F6
:102EC0000E94E613811102C00E9496140E94F11321
:102ED000809329020E94FB1390935702809356021D
:102EE0000E945F170E94F613682F70E080E090E068
:102EF0000E94FE0D6091C5017091C6018091C701CD
:102F00009091C8010E943A0E08950895FF920F9380
:102F10001F93CF93DF938C01F62ED72FC42F22233C
:102F200049F081E080932C020E94FF2090932B02B5
:102F300080932A0280912C028823C1F080912A027A
:102F400090912B020E941721059780F0EF2DFD2F05
:102F5000D8014C2F50E0CD01801B910B84179507B1
:102F60001CF48D918193F7CF10922C02CDB7DEB770
:102F7000E5E00C9470290E94E0230E94DF140E9477
:102F8000ED2308950E94F2230E9451150E941024FF
:102F900008950E9496200E94C6230E94CA140E948F
:102FA000BB170E94C2170E94D314FBCF809133023B
:102FB00080FF06C06091090170E0660F771F26C090
:102FC00081FF04C06091090184E005C082FF07C051
:102FD0006091090188E0689FB001112417C09091A9
:102FE00032029923D1F060910801961788F7209159
:102FF000090188E0289F90011124929FA001939FCE
:10300000500D112470E0CA010E942D29603871050D
:1030100040F46115710519F406C068E070E0862F70
:1030200008958FE7089581E008958091330280FF2D
:1030300008C06091050170E0759567957595679575
:1030400021C081FF06C06091050170E0759567950C
:1030500019C082FF04C06091050170E010C090911A
:103060003102992399F0609104019617A0F780919D
:103070000501899FC001112470E00E942D2960384C
:10308000710540F46115710519F406C061E070E046
:10309000862F08958FE7089581E008958D3E21F4ED
:1030A0000E94D617819504C08E3E29F40E94D6173F
:1030B0008093370208958F3E21F40E94D6178195A0
:1030C00004C0803F29F40E94D617809336020895E9
:1030D000893F19F40E94151805C08A3F31F40E94F7
:1030E000151881958093380208958B3F21F40E9432
:1030F0001518819504C08C3F29F40E9415188093FF
:10310000390208959FE0980F983078F421E030E07C
:10311000A90102C0440F551F9A95E2F7CA01909188
:103120003502892B8093350208958D3F21F48091DB
:10313000330281600BC08E3F21F4809133028260A4
:1031400005C08F3F29F4809133028460809333025D
:1031500008958D3E39F49091370297FF35C0109253
:10316000370259C08E3E29F4909137021916BCF3EC
:103170002BC0909136028F3E29F497FF25C0109204
:10318000360249C0803F19F41916CCF31DC0909146
:103190003802893F29F41916BCF4109238023BC05A
:1031A0008A3F19F497FF10C0F8CF8B3F39F4909104
:1031B000390297FF09C0109239022DC08C3F21F4CB
:1031C000909139021916BCF39FE0980F983080F463
:1031D00021E030E0A90102C0440F551F9A95E2F7A3
:1031E000CA0180959091350289238093350213C0DE
:1031F0008D3F21F4809133028E7F0BC08E3F21F4EE
:10320000809133028D7F05C08F3F29F48091330276
:103210008B7F8093330280913602811106C08091AA
:103220003702811102C0109232028091380281115E
:1032300006C080913902811102C0109231020895B6
:103240008091290283FF7EC08AEC94E00E94A10352
:10325000809135021F928F9385EC94E09F938F931A
:103260000E943A0483EC94E00E94A103809136020C
:10327000282F082E000C330B3F938F9380EC94E0A3
:103280009F938F930E943A048EEB94E00E94A103D7
:1032900080913702282F082E000C330B3F938F9319
:1032A0008BEB94E09F938F930E943A0489EB94E018
:1032B0000E94A10380913802282F082E000C330BA6
:1032C0003F938F9386EB94E09F938F930E943A04F1
:1032D00084EB94E00E94A10380913902282F082EEC
:1032E000000C330B3F938F9381EB94E09F938F936C
:1032F0000E943A048EEA94E00E94A1038091320277
:103300001F928F938BEA94E09F938F930E943A04CD
:1033100089EA94E00E94A103809133021F928F9367
:1033200086EA94E09F938F930E943A0483EA94E0A4
:103330000E94A1038DB79EB74C960FB6F8949EBF1E
:103340000FBE8DBF0E94FF2020913602211104C0C4
:1033500020913702222321F09093300280932F0294
:1033600020913802211104C020913902222321F03A
:1033700090932E0280932D0284E392E00E94C21F5C
:103380000895A6E0B0E0E7ECF9E10C94562986E058
:10339000E4E3F2E0DE01119601900D928A95E1F7E7
:1033A00010923602109237021092380210923902AF
:1033B0008B81811104C08C81882309F45FC08091C6
:1033C0002F02909130020E941721AC01909132029D
:1033D000992339F020910A0130E02417350758F07D
:1033E0004DC020910B018AE0289F900111242417E1
:1033F000350718F043C09F3F19F09F5F909332024A
:103400001B81112361F00E94D617111614F09FEF53
:1034100001C091E0989F902D1124909336021C8159
:10342000112361F00E94D617111614F09FEF01C00E
:1034300091E0989F902D112490933702309136029D
:103440003323E1F0209137022223C1F045EB34030E
:10345000C0011124992319F09093360203C081E032
:103460008093360235EB2303C0011124992319F010
:103470009093370203C081E0809337028D818111E0
:1034800004C08E81882309F45FC080912D02909141
:103490002E020E941721AC0190913102992339F03C
:1034A0002091060130E02417350758F04DC02091D7
:1034B00007018AE0289F900111242417350718F08E
:1034C00043C09F3F19F09F5F909331021D811123EC
:1034D00061F00E941518111614F09FEF01C091E0E1
:1034E000989F902D1124909338021E81112361F032
:1034F0000E941518111614F09FEF01C091E0989FDB
:10350000902D112490933902309138023323E1F049
:10351000209139022223C1F045EB3403C00111246C
:10352000992319F09093380203C081E08093380208
:1035300035EB2303C0011124992319F0909339022C
:1035400003C081E080933902BE016F5F7F4F84E347
:1035500092E00E944B2081110E94201986E0FE011A
:103560003196A4E3B2E001900D928A95E1F7269698
:10357000E3E00C947229E4E3F2E086E0DF011D92BF
:103580008A95E9F7109232021092310210923302BA
:103590000895CF93DF9397FF0DC0FB012281222373
:1035A00049F0EC010E94331BCE019F770E94A91BBA
:1035B0000E94821B81E0DF91CF9108959091590282
:1035C000923071F48A3040F490E009966AE070E03D
:1035D0000E942D29875A01C086500E94010B089530
:1035E0000E94BE0908958CE090E00E948B2990E033
:1035F000A0E0B0E08093590290935A02A0935B023E
:10360000B0935C028091290280FF0EC08091590224
:103610001F928F938CE095E09F938F930E943A04C2
:103620000F900F900F900F900895609159028CE0C9
:1036300090E00E9499290895809359020E94151BD9
:103640008091290280FF0EC0809159021F928F93B2
:103650008DEE94E09F938F930E943A040F900F9009
:103660000F900F9008950E947E1F86958170809321
:103670005E020E947E1F81708093580280915902E1
:10368000813039F480915E02882319F089E30E9429
:10369000010B0E94E51280935D020E94F8120E94C5
:1036A000081380915902813071F048F0823081F026
:1036B000843009F586EE0E94010B88E11AC082EE83
:1036C0000E945D0A18C088E193E00E945E0813C062
:1036D00080915802811103C083E50E94010B82EEA4
:1036E0000E945D0A8FE39CE90197F1F700C000009A
:1036F00087E50E94010B8FE39CE90197F1F700C079
:103700000000089580915902813059F030F08230E4
:1037100089F08430C9F488E215C082EE0E94B20AB2
:1037200013C08CE20E94010B80915E02882361F03D
:1037300089E308C082EE0E94B20A8091580281118A
:1037400003C083E50E94010B80915D020E94F51287
:1037500008950F931F93CF93DF938C01CCE0D0E0BB
:10376000C8010C2E02C0969587950A94E2F78F70D7
:103770000E94DE1A2497CC3F8FEFD80789F7DF919C
:10378000CF911F910F9108950F931F93CF93DF93C4
:10379000EC018B01FB018281882351F00E94E5122C
:1037A000CE01825E9C458530910510F40E941C1B61
:1037B000B801CE010E94C91ADF91CF911F910F91DC
:1037C0000895CF93DF93EC01FB018281882309F4F4
:1037D0003CC1C430FDE5DF0760F4CB3F9CE5D90771
:1037E00088F49E0122503C452431310508F02EC159
:1037F00009C0C236EDE5DE0729F0C63AFDE5DF0770
:1038000009F024C10E94FB13909357028093560243
:10381000C1318CE5D80709F4C6C008F042C0C930F0
:10382000ECE5DE0709F49BC000F5C5308CE5D80750
:1038300009F485C078F4C330ECE5DE0709F478C0FC
:1038400008F07AC0C230DC4509F0F5C0809156021C
:103850008160EFC0C7309CE5D90709F478C008F053
:103860007AC0809156028061E4C0CD30FCE5DF076C
:1038700009F487C058F4CB309CE5D90709F479C026
:1038800008F07BC08091560288606FC0CF30FCE5A5
:10389000DF0709F480C008F082C080915602877F5C
:1038A000C8C0CE3F9CE5D90709F471C000F5C53109
:1038B000FCE5DF0709F485C068F4C3319CE5D9074E
:1038C00009F475C008F095C00E94AD0D80915602B4
:1038D0008F77AFC0CC3FFCE5DF07A9F108F054C0FB
:1038E000CB3FDC4509F0A7C08091570240C0C230F1
:1038F000EDE5DE0709F489C058F4C1158DE5D80758
:1039000009F45AC008F069C08091570282602FC044
:10391000C236EDE5DE0709F47CC0C63AFDE5DF07F7
:1039200009F481C0C330DD4509F085C080E06EC078
:103930008091560282607DC08091560216C08091AF
:103940005602886076C08091570282604FC0809195
:10395000560280626EC08091560280646AC00E94E6
:10396000AD0D80915602806864C0846062C0816041
:103970003DC0809156028E7F5CC0809156028D7F43
:1039800058C08091560216C08091570218C080918D
:1039900057028D7F2BC0809156028F7E4AC0809146
:1039A00056028F7D46C0809156028F7B42C0809127
:1039B0005602877F8B7F3DC0809157028D7F8E7F1F
:1039C00015C08091560282FB222720F991E09227B0
:1039D00090FB82F990FB83F92CC080915702982FBD
:1039E000909591708E7F892B90FB81F9809357027F
:1039F00022C00E94AD0D8091560287FB222720F93C
:103A000091E0922790FB87F914C081E00E949914FD
:103A100012C08091560284FB222720F991E0922760
:103A200090FB84F906C080915602982F909590FBE8
:103A300080F98093560280915602909157020E941D
:103A40000C140E94AD0D80E001C081E0DF91CF91A8
:103A50000895CF93DF9386319C4541F5EB010E9499
:103A6000E512982F8A812091020130910301882369
:103A700079F09A7A81E009F480E080933A0291111A
:103A800002C069E201C065E3C9010E943E200AC08C
:103A900080913A02811102C069E201C065E3C90167
:103AA0000E9441200E942C1380E001C081E0DF9140
:103AB000CF9108950F931F93CF93DF93C42FD22FED
:103AC000FC0182818823B1F040933D020E94FF20D7
:103AD00090933C0280933B0280E28C0F883008F088
:103AE0004DC0C77081E001C0880FCA95EAF70E94F7
:103AF0000B0B44C080913D02481330C080913B02C3
:103B000090913C020E941721883C910538F510E203
:103B10001D0FCD17B9F080E28C0F883040F4C770CC
:103B200081E001C0880FCA95EAF70E94120B183095
:103B300010F581E09D2F977001C0880F9A95EAF7E4
:103B40000E940B0B802F0E94010B1830B8F4D77025
:103B500081E001C0880FDA95EAF70AC080E28C0F95
:103B6000883060F4C77081E001C0880FCA95EAF719
:103B70000E94120B03C0802F0E94010BDF91CF9196
:103B80001F910F9108950F939C01CB01243F4CE5A9
:103B9000340731F188F4293DFCE53F07D9F02A3D8F
:103BA0004CE5340779F1283D3C45A9F506E221EEC4
:103BB00041EE68ED7CE52BC0263FFCE53F07E1F0D8
:103BC000A8F0273F3C4539F507E225EE46EE67EFC2
:103BD0007CE51DC007E225EE45EE69ED7CE517C0EA
:103BE00006E221EE40EE64EF7CE511C007E225EE2F
:103BF00044EE65EF7CE50BC006E221EE42EE66EF97
:103C00007CE505C008E221E045EE6AED7CE50E9416
:103C10005A1D80E008C0FC018281882319F01092AF
:103C20003D0201C081E00F9108951092B9008CE02F
:103C30008093B8000895A0E0B0E0E1E2FEE10C94CA
:103C40004E29B82EEB010E94FF206C01C431D10532
:103C500058F0CF3F8FEFD80759F0CE0164E170E004
:103C60000E9419297B0107C0EE24E394F12C03C0C4
:103C700025E0E22EF12C84E8A82E94EA992E1092E9
:103C8000BC009092BC000E94FF208C018091BC007F
:103C900087FD08C00E94FF20801B910B8E159F0599
:103CA000A8F32AC08091B900887F883041F08091C4
:103CB000B900887F803119F00FEF1FEF1FC0B0925D
:103CC000BB00A092BC000E94FF208C018091BC0030
:103CD00087FD08C00E94FF20801B910B8E159F0559
:103CE000A8F30AC08091B900887F883111F0803430
:103CF00019F700E010E00EC00EEF1FEFCF3F8FEF7F
:103D0000D80709F4BCCFC6010E9417218C179D0764
:103D100008F4B5CFC801CDB7DEB7EBE00C946A2943
:103D20000F931F93CF93DF93EB018093BB0084E845
:103D30008093BC000E94FF208C018091BC0087FD15
:103D40000EC0CF3F8FEFD807C1F30E94FF20801B2A
:103D5000910B8C179D0788F38EEF9FEF0CC020917D
:103D6000B900287F81E090E0283211F480E090E0F3
:103D7000919581959109DF91CF911F910F910895B0
:103D80000F931F93CF93DF93EC0184EC8093BC00DF
:103D90000E94FF208C018091BC0087FD0EC0CF3FA8
:103DA0008FEFD807C1F30E94FF20801B910B8C1767
:103DB0009D0788F38EEF9FEF03C08091BB0090E0DA
:103DC000DF91CF911F910F9108950F931F93CF9380
:103DD000DF93EC0184E88093BC000E94FF208C01FB
:103DE0008091BC0087FD0EC0CF3F8FEFD807C1F395
:103DF0000E94FF20801B910B8C179D0788F38EEF8C
:103E00009FEF03C08091BB0090E0DF91CF911F91A5
:103E10000F910895A0E0B0E0E0E1FFE10C9451299A
:103E20006B018A017901B9010E941B1EE6010C0D8C
:103E30001D1DC017D10741F424E92093BC00CDB764
:103E4000DEB7E8E00C946D2997FDF6CFB7018991B4
:103E50000E94901EEECFA0E0B0E0E1E3FFE10C9401
:103E600051297B01EA016901B90181600E941B1E91
:103E70008701219798012E193F092C173D0760F4FF
:103E800097FD14C0C6010E94C01E97FD02C0F80134
:103E900080830F5F1F4FEECF97FD08C0C6010E94C1
:103EA000E51E97FD03C0CE0DDF1D888324E9209316
:103EB000BC001816190614F480E090E0CDB7DEB708
:103EC000E8E00C946D2984E98093BC0008959093F8
:103ED0008B0180938A01089590934302809342025C
:103EE0000895E0914202F0914302309729F0019049
:103EF000F081E02D0995089580E008950E94711FDA
:103F00000895EF92FF920F931F93CF93DF93E09169
:103F10004202F0914302309781F18C010280F381DB
:103F2000E02D09958091290282FF27C080FF04C0FF
:103F300084E395E00E94A103E80118E08EE2E82EF8
:103F400085E0F82E8091290280FF0BC088811F92A6
:103F50008F93FF92EF920E943A040F900F900F9070
:103F60000F90115021961111EDCF8091290280FF01
:103F700004C08CE295E00E94A103CDB7DEB7E6E075
:103F80000C946F29E0914202F0914302309739F08E
:103F900022E0DC012C930480F581E02D0995089541
:103FA00020914002309141022817390771F0909317
:103FB000410280934002E0914202F0914302309727
:103FC00021F00680F781E02D0995089520913E02A9
:103FD00030913F022817390771F090933F02809388
:103FE0003E02E0914202F0914302309721F00084BA
:103FF000F185E02D09950895FC01329697E080E067
:10400000915029F021912223D9F38F5FF9CF0895A0
:10401000662349F0FC01329608962191621729F037
:10402000E817F907D1F780E0089581E008959C0131
:10403000FC0132969FEF80E04191461789F09F3F47
:1040400019F4411101C0982F8F5F8630A9F79F3F67
:1040500039F0F901E90FF11D97FDFA956283089592
:1040600008959C012A5F3F4FFC014281461301C025
:104070001282019682179307B9F708950E941720BC
:1040800008950E9431200895029626E0FC011192C5
:104090002A95E9F7089546E050E00E947E2921E044
:1040A000892B09F420E0822F089508950E9455205D
:1040B000089583E0809344020E9456200895811160
:1040C00002C081E001C082E0809344020E94562039
:1040D00008950E945F20089581E0809344020E9429
:1040E000562008950E946C20089508950E9475201E
:1040F00008950E94762008950E94752008950E94D8
:1041000075200895CF930E94A8050E94BB050E94C8
:104110007C20C0E08C2F0E943B06811104C0CF5F41
:10412000C830C1F701C081E0CF91089585B780689C
:1041300085BF85B7806885BF08951F920F920FB61F
:104140000F9211248F939F93AF93BF938091450259
:10415000811113C080915F0290916002A091610271
:10416000B09162024196A11DB11D80935F029093B0
:104170006002A0936102B0936202BF91AF919F91E0
:104180008F910F900FBE0F901F901895809167022E
:10419000843031F10E9457091092450220E488E1F1
:1041A00090E00FB6F894A895809360000FBE20931E
:1041B000600083B7817F846083BF83B7816083BFE2
:1041C0007894889583B78E7F83BF0FB6F894A895AF
:1041D00080916000886180936000109260000FBE43
:1041E00008950E94AD0D0E945C09089582E084BD8F
:1041F00093E095BD9AEF97BD80936E0008952FB719
:10420000F89480915F0290916002A0916102B09158
:1042100062022FBF08952FB7F89460915F027091EA
:10422000600280916102909162022FBF08959C010B
:104230004FB7F89480915F0290916002A091610263
:10424000B09162024FBF821B930B089578941F9226
:104250000F920FB60F9211248F939F93AF93BF933A
:1042600080915F0290916002A0916102B091620220
:104270000196A11DB11D80935F0290936002A093EF
:104280006102B0936202BF91AF919F918F910F90A5
:104290000FBE0F901F901895F89481E08093E00076
:1042A00080E28093D800E9ECF0E010828FE19EE498
:1042B0000197F1F700C000001DBA109268001CBC05
:1042C00010BE1FBA10927A0010926E0010926F000A
:1042D00010927100109272001082ECEBF0E01082EC
:1042E00014B817B81AB81DB810BA108215B818B893
:1042F0001BB81EB811BA0C94003F08959AE088E1EB
:104300000FB6F894A895809360000FBE909360005C
:10431000FFCF809154020895089522E02093E90090
:104320002FEF3091E800215035FD06C035ED3A956C
:10433000F1F700002111F5CF2091E80025FF0BC017
:1043400040E050E066E070E00E9480248091E80048
:104350008E778093E8000895CF93DF9321E0209338
:10436000E9002FEF3091E800215035FD06C035ED12
:104370003A95F1F700002111F5CF2091E80025FFD3
:1043800014C0EC0140E050E068E070E00E9480243E
:104390008091E8008E778093E80088E0FE01ACE42D
:1043A000B2E001900D928A95E1F7DF91CF910895E7
:1043B0008093480270934A02609349028091670299
:1043C000843001F582E08093E9008FEF9091E8005E
:1043D000815095FD06C095ED9A95F1F70000811189
:1043E000F5CF8091E80085FF0DC040E050E063E02C
:1043F00070E088E492E00E9480248091E8008E774B
:104400008093E8000895BC0184E00E94D8210895BB
:10441000BC0183E00E94D82108958AE595E00E94BE
:10442000A10380916602811109C00E940B260E949F
:1044300068268091E20084608093E200089586E51A
:1044400095E00E94A10310926602089582E595E02E
:104450000E94A1030E94722008958EE495E00E94BC
:10446000A1036091630281E0611101C080E00E94BC
:10447000592008958AE495E00E94A1039091670273
:1044800081E0943009F080E0609163020E945F2037
:104490000895209147022F5F822F62E30E940D2929
:1044A000992319F0209347020895109247028091B2
:1044B0004B02882371F180916702843041F580912D
:1044C000E9008F702091EC00922F917020FD90E810
:1044D000892B93E09093E9009091EB0090FF14C03A
:1044E0009091EE0097FF10C09091E80095FF03C0F7
:1044F0001092F100F9CF9091E80090FF05C09091E3
:10450000E8009E779093E8008F708093E900109206
:104510004B02089542E061EC81E00E94842542E272
:1045200061EC82E00E94842542E261EC83E00E941B
:1045300084259091670281E0943009F080E06091D9
:1045400063020E946920089580916902833009F412
:1045500061C030F4813071F0823009F49BC008955D
:104560008A3009F487C08B3009F46CC0893009F0B7
:10457000A9C020C080916802813A09F0A3C080914F
:10458000E800877F8093E80080916C0290916D0233
:10459000892B21F468E08CE492E003C060E080E0C5
:1045A00090E070E00E94C5248091E8008B778093B2
:1045B000E800089580916802813209F083C08091FB
:1045C0006C0290916D02029708F07CC08091E80027
:1045D000877F8093E8008091E80082FD05C080918C
:1045E00067028111F8CF6EC02091F3008091F20034
:1045F00090E0922B029731F48091F100813011F01C
:10460000863021F48091F100809354028091E8007B
:104610008B7754C080916802813A09F053C0809131
:104620006C0290916D02892B09F04CC08091E800DA
:10463000877F8093E8008091E80080FFFCCF809125
:10464000180137C0809168028132E1F580916C02D7
:1046500090916D02892BB1F58091E800877F80935E
:10466000E8000E94B92580916A02809318010E9497
:10467000AD0D089580916802813221F58091E800A6
:10468000877F8093E8000E94B92580916B02809318
:104690005502089580916802813AA1F48091E80062
:1046A000877F8093E8008091E80080FFFCCF8091B5
:1046B00055028093F1008091E8008E778093E800A6
:1046C0000E94B92508959FB7F89410924B029FBF9E
:1046D00090916702943009F057C09091E9009F7063
:1046E0003091EC00232F217030FD20E8922B23E045
:1046F0002093E9002091EB0020FF43C02091EE00C1
:1047000027FF3FC020914602222321F02091E8009C
:1047100025FF37C01092460226E03091E80035FDB3
:1047200015C030916702343061F53091EB0035FDF2
:1047300028C0215021F481E08093460222C0EFE995
:10474000FFE03197F1F700C00000E7CF8093F10060
:104750008091E80085FD0AC08091E80080FFFCCFD1
:104760008091E8008E778093E80006C08FB7F894B8
:1047700021E020934B028FBF9F709093E90080E06F
:1047800008959F709093E9008FEF089584B7877F15
:1047900084BF0FB6F894A8958091600088618093DB
:1047A0006000109260000FBE90E080E80FB6F894B1
:1047B00080936100909361000FBE0E946C20089569
:1047C0000E940B260E946826E2EEF0E08081846061
:1047D000808378940E94F22808958CE091E00E94F2
:1047E0006C1F0895809167028530C9F486E495E0D6
:1047F0000E94A10380916702853079F40E94C6204F
:10480000809165028823B1F30E948220882391F36E
:104810000E946A240E94AD0DEDCF0E94F120089500
:1048200008950E9414240895292F33272330310539
:10483000C9F060F42130310581F02230310509F0F2
:1048400041C08BE590E022EA35E040C021323105DD
:10485000E1F02232310531F135C082E190E02DEFF7
:1048600035E034C099278130910549F028F002974E
:1048700049F5EEE5F5E005C0EEE9F5E002C0E0E857
:10488000F5E0849190E09F0121C063307105D0F480
:10489000660F771FFB01EC57FE4F2081318189E0C5
:1048A00090E014C06330710568F4FB01EE0FFF1F48
:1048B000E258FE4F20813181FB01E558FE4F808197
:1048C00090E004C080E090E020E030E0FA01318325
:1048D0002083089580E189BD82E189BD09B400FE8D
:1048E000FDCF8091D8008F7D8093D8008091E0002B
:1048F00082608093E0008091E00081FDFCCF08950C
:10490000A0E0B0E0E6E8F4E20C945129EC018B0160
:104910007A010E94D825811133C0E114F10439F0E5
:10492000F70180819181081B190BC80FD91FC12C79
:10493000D12C0115110519F18091E80085FD16C0F3
:104940008091E8008E778093E800E114F10449F04B
:10495000F70180819181C80ED91ED182C08285E085
:104960000FC00E94D825882321F30AC08991809323
:10497000F10001501109FFEFCF1ADF0ADACF80E012
:10498000CDB7DEB7E8E00C946D2920916E0230912E
:104990006F022617370748F06115710539F4209129
:1049A000E8002E772093E80001C0B901FC0120E067
:1049B0006115710579F1809167028823F1F18530E5
:1049C000F1F18091E80083FD3CC08091E80082FD18
:1049D0002EC08091E80080FFEBCF2091F300809102
:1049E000F20090E0922B6115710551F0883091052D
:1049F00038F421912093F100615071090196F3CFB1
:104A000021E0089709F020E08091E8008E778093FC
:104A1000E800CECF2111CFCF0AC080916702882352
:104A200061F0853061F08091E80083FD0AC08091DB
:104A3000E80082FFF2CF80E0089582E0089583E0ED
:104A4000089581E0089520916E0230916F0226173B
:104A5000370748F06115710539F42091E8002E7789
:104A60002093E80001C0B901FC0120E06115710547
:104A700091F180916702882309F440C0853009F4E0
:104A80003FC08091E80083FD3DC08091E80082FD39
:104A90002FC08091E80080FFE9CF2091F300809142
:104AA000F20090E0922B6115710559F08830910564
:104AB00040F424912093F1003196615071090196E0
:104AC000F2CF21E0089709F020E08091E8008E778E
:104AD0008093E800CBCF2111CCCF0AC08091670230
:104AE000882361F0853061F08091E80083FD0AC081
:104AF0008091E80082FFF2CF80E0089582E008957F
:104B000083E0089581E00895982F973068F5909399
:104B1000E900981739F07091EC002091ED00509168
:104B2000F00003C0242F762F50E021FD02C09F5FCC
:104B3000ECCF3091EB003E7F3093EB003091ED00F5
:104B40003D7F3093ED003091EB0031603093EB000E
:104B50007093EC002093ED005093F0002091EE0054
:104B600027FDE5CF80E008958F708093E90081E014
:104B700008958091680287FF11C08091E80082FD4E
:104B800005C0809167028111F8CF11C08091E800C3
:104B90008B770BC080916702882349F08091E800F1
:104BA00080FFF8CF8091E8008E778093E800089529
:104BB0002091E4003091E50095E64091EC00842FCF
:104BC000817040FF23C08091E80080FD1DC080916E
:104BD0006702882399F0853099F08091EB0085FD7C
:104BE00011C04091E4005091E5002417350729F3E6
:104BF000915011F09A01E1CF84E0089582E0089588
:104C000083E0089581E0089580E008954091E800F0
:104C100042FFDDCF08950E947A260E948226E0EEB0
:104C2000F0E0808181608083E8EDF0E080818F7723
:104C3000808319BCA7EDB0E08C918E7F8C9380812E
:104C40008F7E80831092660208950F931F93CF93F7
:104C5000DF930E947A260E948226C8EDD0E08881E8
:104C60008F77888388818068888388818F7D888317
:104C700019BC1092670210926302109265021092A2
:104C8000640200EE10E0F80180818B7F80838881D0
:104C90008160888342E060E080E00E948425E1EE4C
:104CA000F0E080818E7F8083E2EEF0E080818160A1
:104CB0008083808188608083F80180818E7F8083FB
:104CC000888180618883DF91CF911F910F91089532
:104CD000E8EDF0E080818F7E8083E7EDF0E0808179
:104CE0008160808384E082BF81E0809366020E94BD
:104CF00025260895E8EDF0E080818E7F8083109274
:104D0000E20008951092DA001092E10008951F92D7
:104D10000F920FB60F9211242F933F934F935F93EF
:104D20006F937F938F939F93AF93BF93EF93FF9373
:104D30008091E10082FF0BC08091E20082FF07C0FA
:104D40008091E1008B7F8093E1000E944922809155
:104D5000DA0080FF1FC08091D80080FF1BC08091C7
:104D6000DA008E7F8093DA008091D90080FF0DC039
:104D700080E189BD82E189BD09B400FEFDCF81E0FB
:104D8000809367020E940D2205C019BC1092670231
:104D90000E941F228091E10080FF19C08091E200F3
:104DA00080FF15C08091E2008E7F8093E2008091A9
:104DB000E20080618093E2008091D800806280935D
:104DC000D80019BC85E0809367020E942D22809153
:104DD000E10084FF30C08091E20084FF2CC080E1BC
:104DE00089BD82E189BD09B400FEFDCF8091D80064
:104DF0008F7D8093D8008091E1008F7E8093E100C9
:104E00008091E2008F7E8093E2008091E2008160D9
:104E10008093E20080916302882311F084E007C050
:104E20008091E30087FD02C081E001C083E08093B0
:104E300067020E943A228091E10083FF29C080919D
:104E4000E20083FF25C08091E100877F8093E1002D
:104E500082E080936702109263028091E1008E7F6E
:104E60008093E1008091E2008E7F8093E200809148
:104E7000E20080618093E20042E060E080E00E9416
:104E800084258091F00088608093F0000E942622A3
:104E9000FF91EF91BF91AF919F918F917F916F9112
:104EA0005F914F913F912F910F900FBE0F901F90E8
:104EB00018951F920F920FB60F9211242F933F93C4
:104EC0004F935F936F937F938F939F93AF93BF9312
:104ED000CF93DF93EF93FF93C091E900CF70809160
:104EE000EC00D82FD17080FDD0E81092E9008091BD
:104EF000F000877F8093F00078940E949D271092A5
:104F0000E9008091F00088608093F000CD2BCF7095
:104F1000C093E900FF91EF91DF91CF91BF91AF91E5
:104F20009F918F917F916F915F914F913F912F91C1
:104F30000F900FBE0F901F901895AAE2B0E0E3EA21
:104F4000F7E20C945629E8E6F2E08091F1008193B3
:104F500022E0E037F207C9F70E94A4228091E8001E
:104F600083FF2EC18091680290916902492F50E021
:104F70004A30510508F024C1FA01EE59FF4F0C9454
:104F80004129803821F0823809F01AC108C0809187
:104F9000640290916502992389F082600FC080912C
:104FA0006C028F70873008F00BC18093E90080910C
:104FB000EB0085FB882780F91092E9009091E800CA
:104FC000977F9093E8008093F1001092F100D1C098
:104FD000282F2D7F09F0F4C0882319F0823061F06A
:104FE000EFC080916A02813009F0EAC0933009F085
:104FF00080E0809365022EC080916A0281112AC0F0
:1050000080916C028F702FEF280F263008F0D8C0E7
:105010008093E9002091EB0020FF1CC0933021F425
:105020008091EB00806214C09091EB0090619093AE
:10503000EB0021E030E0A90102C0440F551F8A9522
:10504000E2F74093EA001092EA008091EB0088605A
:105050008093EB001092E9008091E800877F8093B5
:10506000E8000E94B925ACC08111AAC010916A0263
:105070001F778091E3008078812B8093E3008091FB
:10508000E800877F8093E8000E94B9258091E800BE
:1050900080FFFCCF8091E30080688093E3001111D2
:1050A00002C082E001C083E08093670289C080581B
:1050B000823008F085C080916A0290916B028C3D2D
:1050C00053E0950779F583E08A838AE289834FB7B5
:1050D000F894DE01139620E03EE051E2E32FF0E089
:1050E00050935700E49120FF03C0E295EF703F5FBB
:1050F000EF708E2F90E0EA3010F0C79601C0C09696
:105100008D939D932F5F243149F74FBF8091E80025
:10511000877F8093E8006AE270E0CE0101960E94EA
:10512000C52416C060916C0270916D02AE014F5F94
:105130005F4F0E941124BC01892B09F441C090915A
:10514000E800977F9093E80089819A810E94232547
:105150008091E8008B778093E80032C0803881F539
:105160008091E800877F8093E800809163028093BC
:10517000F1008091E8008E7772CF811121C080917B
:105180006A0290916B0299270297D4F48091E8000B
:10519000877F8093E80080916A02809363020E9477
:1051A000B92580916302811106C08091E30087FDDB
:1051B00002C081E001C084E0809367020E948A22DD
:1051C0008091E80083FF0AC08091E800877F809388
:1051D000E8008091EB0080628093EB00AA96E3E008
:1051E0000C947229CF93809167028823A1F0C0911B
:1051F000E900CF709091EC00892F817090FD80E8DC
:10520000C82B1092E9008091E80083FD0E949D2741
:10521000CF70C093E900CF910895991B79E004C045
:10522000991F961708F0961B881F7A95C9F78095E5
:105230000895AA1BBB1B51E107C0AA1FBB1FA617DD
:10524000B70710F0A61BB70B881F991F5A95A9F72F
:1052500080959095BC01CD01089597FB072E16F41B
:10526000009407D077FD09D00E94192907FC05D0CA
:105270003EF4909581959F4F0895709561957F4F6D
:105280000895EE0FFF1F0590F491E02D09942F92E1
:105290003F924F925F926F927F928F929F92AF92C6
:1052A000BF92CF92DF92EF92FF920F931F93CF9313
:1052B000DF93CDB7DEB7CA1BDB0B0FB6F894DEBFAA
:1052C0000FBECDBF09942A88398848885F846E84D0
:1052D0007D848C849B84AA84B984C884DF80EE801A
:1052E000FD800C811B81AA81B981CE0FD11D0FB623
:1052F000F894DEBF0FBECDBFED010895FB01DC01C8
:1053000004C08D910190801921F441505040C8F79C
:10531000881B990B0895F999FECF92BD81BDF89A2B
:10532000992780B50895A8E1B0E042E050E00C94E0
:10533000BF29262FF999FECF92BD81BDF89A01971A
:1053400000B4021639F01FBA20BD0FB6F894FA9ACD
:10535000F99A0FBE08950396272F0E949A290E945A
:105360009929252F0E949A29242F0C949A29019675
:10537000272F0E949A290C949929DC01CB01FC016A
:10538000F999FECF06C0F2BDE1BDF89A319600B49E
:0E5390000D9241505040B8F70895F894FFCFA9
:10539E0020000F02280850011E0A14018921AC2199
:1053AE008D21082203228C2101E200E900EA00B5DA
:1053BE0000B600B700CD008301CC008A01920194A3
:1053CE00012102230224022502260227022A02B309
:1053DE0000B4006F007000818283E200E900EA00F1
:1053EE00B500B600B700CD008301CC008A01920152
:1053FE0094012102230224022502260227022A02F8
:10540E00B300B4006F007000818283407B22AC0633
:0A541E0031060F06B405CD05E605C2
:00000001FF
